:020000020000FC
:020000005FC0DF
:10002C0089C002E114E620E034E0011B003054F4F6
:10003C00010F32FF0C942B0032E01AE0622F20E00B
:10004C000C941B0023950C941B00522F402F0895E9
:10005C00393010F53830F0F43730D0F43630B0F4A5
:10006C00353090F4343070F4333050F4323030F4A6
:10007C00313010F43FE3089536E008953BE50895E0
:10008C003FE4089536E608953DE608953DE708956A
:10009C0037E008953FE708953FE608953695369585
:1000AC003695369536953695089560FF0C945B0021
:1000BC0060E008954CEF4AB94FEF44B940E045B9C0
:1000CC00789442E040936F0040E0409380004DE014
:1000DC004093810040E05FE7409389005093880093
:1000EC000E9417002A9A2898352F0E942E00232F41
:1000FC00220F220F2BB90E94540011E0312305B1BD
:10010C00032B05B90E945B002A98299A2898342F52
:10011C000E942E00232F220F220F2BB90E94540075
:10012C0011E0312305B1032B05B90E945B0029981E
:08013C000C94700061E01895BD
:00000001FF
