:020000020000FC
:040000000C942C0030
:100054000C94300003E007B90CEF0AB916B1113063
:1000640039F016B1123059F016B11330C1F0F6CF91
:100074004CEF4BB92DD044274BB92AD0EFCF5A9A25
:1000840027D05B9A25D05C9A23D05D9A21D05E9AC2
:100094001FD05F9A1DD011271BB91AD0DFCF5A9AEF
:1000A40017D05B9A15D05C9A13D05D9A11D05E9AE2
:1000B4000FD05F9A0DD05F980BD05E9809D05D98F1
:1000C40007D05C9805D05B9803D05A9801D0C6CF6E
:1000D400552766277EE15A95F1F76A95E1F77A95F7
:0400E400D1F70895B3
:00000001FF
