:100000000C9443000C944D000C944D000C944D0046
:100010000C944D000C944D000C944D000C944D002C
:100020000C944D000C944D000C944D000C944D001C
:100030000C944D000C944D000C944D000C944D000C
:100040000C944D000C944D000C944D000C944D00FC
:100050000C944D000C944D000C944D000C944D00EC
:100060000C944D000C944D0005A84CCDB2D44EB963
:100070003836A9020C50B9918688083CA6AAAA2A4B
:10008000BE000000803F11241FBECFEFD8E0DEBFCE
:10009000CDBF0E944F000C94F0020C9400008FEF33
:1000A0008AB984B986E880937A0080E480937C00E2
:1000B000C12CD12C760180917A00806480937A00E3
:1000C00080917A0086FDFCCFC0917800D0917900B4
:1000D000C701B6010E9415014B015C01BE0183E01E
:1000E000769567958A95E1F780E090E00E94490156
:1000F000A50194010E943A0220E030E04EEF52E464
:100100000E94A4000E941A01262F220F220F2BB951
:10011000607C772796E0769567959A95E1F765B9C3
:100120002AE037ED43E25CE3C701B6010E94A40078
:100130006B017C0120E030E04FE753E40E941001A6
:100140008111B9CFB5CF5058BB27AA270E94BB0059
:100150000C94EC010E94B30138F00E94BA0120F027
:1001600039F49F3F19F426F40C94B0010EF4E09595
:10017000E7FB0C94AA01E92F0E94110258F3BA1769
:10018000620773078407950720F079F4A6F50C94AD
:1001900033020EF4E0950B2EBA2FA02D0B01B901FE
:1001A00090010C01CA01A0011124FF27591B99F0ED
:1001B000593F50F4503E68F11A16F040A22F232FF9
:1001C000342F4427585FF3CF469537952795A79549
:1001D000F0405395C9F77EF41F16BA0B620B730BF0
:1001E000840BBAF09150A1F0FF0FBB1F661F771F61
:1001F000881FC2F70EC0BA0F621F731F841F48F416
:10020000879577956795B795F7959E3F08F0B0CF9E
:100210009395880F08F09927EE0F97958795089585
:100220000E94860108F481E008950E94C301E395CD
:100230000C94FD010E94190288F09F5798F0B92F85
:100240009927B751B0F0E1F0660F771F881F991F0B
:100250001AF0BA95C9F714C0B13091F00E94330278
:10026000B1E008950C943302672F782F8827B85F88
:1002700039F0B93FCCF3869577956795B395D9F763
:100280003EF490958095709561957F4F8F4F9F4F6D
:100290000895E89409C097FB3EF490958095709579
:1002A00061957F4F8F4F9F4F9923A9F0F92F96E9C2
:1002B000BB279395F695879577956795B795F11137
:1002C000F8CFFAF4BB0F11F460FF1BC06F5F7F4FD4
:1002D0008F4F9F4F16C0882311F096E911C07723E6
:1002E00021F09EE8872F762F05C0662371F096E8EF
:1002F000862F70E060E02AF09A95660F771F881FBE
:10030000DAF7880F9695879597F90895990F000861
:10031000550FAA0BE0E8FEEF16161706E807F907D7
:10032000C0F012161306E407F50798F0621B730B72
:10033000840B950B39F40A2661F0232B242B252BF3
:1003400021F408950A2609F4A140A6958FEF811D96
:10035000811D089597F99F6780E870E060E0089537
:100360009FEF80EC089500240A94161617061806CD
:100370000906089500240A941216130614060506A9
:1003800008950C94B0010E941902D8F3E894E0E0BB
:10039000BB279F57F0F02AED3FE049EC06C0EE0F77
:1003A000BB0F661F771F881F28F0B23A62077307DA
:1003B000840728F0B25A620B730B840BE3959A956D
:1003C00072F7803830F49A95BB0F661F771F881F2D
:1003D000D2F790480C94A902092E0394000C11F452
:1003E000882352F0BB0F40F4BF2B11F460FF04C010
:1003F0006F5F7F4F8F4F9F4F0895EF93E0FF07C0D0
:10040000A2EA2AED3FE049EC5FEB0E94BB000E94AC
:10041000EC010F90039401FC9058E8E6F0E00C9496
:10042000B50257FD9058440F551F59F05F3F71F0CA
:100430004795880F97FB991F61F09F3F79F087954B
:100440000895121613061406551FF2CF4695F1DFD4
:1004500008C0161617061806991FF1CF8695710564
:10046000610508940895E894BB2766277727CB0198
:1004700097F908950E944D020C94EC010E94B3017B
:1004800038F00E94BA0120F0952311F00C94AA01D3
:100490000C94B00111240C9434020E94110270F3E8
:1004A000959FC1F3950F50E0551F629FF001729F19
:1004B000BB27F00DB11D639FAA27F00DB11DAA1F28
:1004C000649F6627B00DA11D661F829F2227B00D75
:1004D000A11D621F739FB00DA11D621F839FA00D00
:1004E000611D221F749F3327A00D611D231F849F50
:1004F000600D211D822F762F6A2F11249F575040A7
:100500009AF0F1F088234AF0EE0FFF1FBB1F661F21
:10051000771F881F91505040A9F79E3F510580F0EA
:100520000C94AA010C9434025F3FE4F3983ED4F398
:10053000869577956795B795F795E7959F5FC1F78E
:10054000FE2B880F911D9695879597F908959F3FEB
:1005500031F0915020F4879577956795B795880F7E
:10056000911D9695879597F908959F938F937F9303
:100570006F93FF93EF939B01AC010E943A02EF91BE
:10058000FF910E94C9022F913F914F915F910C946E
:100590003A02DF93CF931F930F93FF92EF92DF9274
:1005A0007B018C01689406C0DA2EEF010E944D0297
:1005B000FE01E894A5912591359145915591A6F3B9
:1005C000EF010E94BB00FE019701A801DA9469F7D0
:1005D000DF90EF90FF900F911F91CF91DF910895E1
:0405E000F894FFCFBD
:00000001FF
