:100000000C9434000C9449000C9449000C94490061
:100010000C9449000C9449000C9449000C9449003C
:100020000C9449000C9449000C9449000C9449002C
:100030000C9449000C9449000C9449000C9449001C
:100040000C9449000C9449000C9449000C9449000C
:100050000C9449000C9449000C9449000C944900FC
:100060000C9449000C94490011241FBECFEFD8E036
:10007000DEBFCDBF11E0A0E0B1E0E4EFF4E002C0EC
:1000800005900D92A432B107D9F70E9481000C941B
:1000900078020C940000AF92BF92CF92DF92EF9261
:1000A000FF920F931F93CF93DF938C01EB01A896E0
:1000B0005B0184E0A80EB11CC12CD12C7601F801A3
:1000C00061917191819191918F015A914A913A91E7
:1000D0002A910E940B029B01AC01C701B6010E944C
:1000E000DB006B017C01AC16BD0649F7DF91CF91B7
:1000F0001F910F91FF90EF90DF90CF90BF90AF9046
:100100000895CF93DF93CDB7DEB7C854D1090FB6AA
:10011000F894DEBF0FBECDBF8FEF8AB984B986E8F1
:1001200080937A0080E680937C0084E2E0E0F1E056
:10013000DE01119601900D928A95E1F78E010B5D1B
:100140001F4F80917A00806480937A0080917A00BA
:1001500086FDFCCFF801B096B291A2919291829166
:1001600084839583A683B783E017F107A9F760918D
:10017000790070E080E090E00E947D016DA37EA395
:100180008FA398A7B801CE0101960E944B000E9450
:100190004701262F220F220F2BB986E07595679510
:1001A0008A95E1F765B98FE99FE00197F1F700C003
:1001B0000000C7CF5058BB27AA270E94F2000C941A
:1001C000D1010E94C30138F00E94CA0120F039F425
:1001D0009F3F19F426F40C94C0010EF4E095E7FB60
:1001E0000C94BA01E92F0E94E20158F3BA17620792
:1001F00073078407950720F079F4A6F50C940402A0
:100200000EF4E0950B2EBA2FA02D0B01B901900131
:100210000C01CA01A0011124FF27591B99F0593F75
:1002200050F4503E68F11A16F040A22F232F342FBD
:100230004427585FF3CF469537952795A795F0400B
:100240005395C9F77EF41F16BA0B620B730B840B20
:10025000BAF09150A1F0FF0FBB1F661F771F881FD8
:10026000C2F70EC0BA0F621F731F841F48F4879530
:1002700077956795B795F7959E3F08F0B0CF939522
:10028000880F08F09927EE0F9795879508950E949B
:100290004E016894B1110C94050208950E94EA0180
:1002A00088F09F5798F0B92F9927B751B0F0E1F037
:1002B000660F771F881F991F1AF0BA95C9F714C0E7
:1002C000B13091F00E940402B1E008950C94040250
:1002D000672F782F8827B85F39F0B93FCCF3869520
:1002E00077956795B395D9F73EF49095809570957D
:1002F00061957F4F8F4F9F4F0895E89409C097FBFA
:100300003EF490958095709561957F4F8F4F9F4FEC
:100310009923A9F0F92F96E9BB279395F695879530
:1003200077956795B795F111F8CFFAF4BB0F11F4F3
:1003300060FF1BC06F5F7F4F8F4F9F4F16C088239A
:1003400011F096E911C0772321F09EE8872F762FD0
:1003500005C0662371F096E8862F70E060E02AF011
:100360009A95660F771F881FDAF7880F96958795FD
:1003700097F9089597F99F6780E870E060E0089525
:100380009FEF80EC089500240A94161617061806AD
:100390000906089500240A94121613061406050689
:1003A0000895092E0394000C11F4882352F0BB0F1A
:1003B00040F4BF2B11F460FF04C06F5F7F4F8F4F7D
:1003C0009F4F089557FD9058440F551F59F05F3FB8
:1003D00071F04795880F97FB991F61F09F3F79F067
:1003E00087950895121613061406551FF2CF4695E9
:1003F000F1DF08C0161617061806991FF1CF86956B
:100400007105610508940895E894BB27662777274E
:10041000CB0197F908950E941E020C94D1010E940D
:10042000C30138F00E94CA0120F0952311F00C940A
:10043000BA010C94C00111240C9405020E94E2013F
:1004400070F3959FC1F3950F50E0551F629FF00127
:10045000729FBB27F00DB11D639FAA27F00DB11D40
:10046000AA1F649F6627B00DA11D661F829F2227C9
:10047000B00DA11D621F739FB00DA11D621F839F50
:10048000A00D611D221F749F3327A00D611D231F26
:10049000849F600D211D822F762F6A2F11249F5774
:1004A00050409AF0F1F088234AF0EE0FFF1FBB1F77
:1004B000661F771F881F91505040A9F79E3F510536
:1004C00080F00C94BA010C9405025F3FE4F3983E6F
:1004D000D4F3869577956795B795F795E7959F5FE0
:1004E000C1F7FE2B880F911D9695879597F9089572
:0404F000F894FFCFAE
:1004F400BB9CDA457DEA4DC7BFC72C48D189A8C843
:10050400C0F1D048D189A8C8BFC72C487DEA4DC7DF
:04051400BB9CDA456D
:00000001FF
