:100000000C9434000C943E000C943E000C943E0082
:100010000C943E000C943E000C943E000C943E0068
:100020000C943E000C943E000C943E000C943E0058
:100030000C943E000C943E000C943E000C943E0048
:100040000C943E000C943E000C943E000C943E0038
:100050000C943E000C943E000C943E000C943E0028
:100060000C943E000C943E0011241FBECFEFD8E04C
:10007000DEBFCDBF0E94A7000C94CE000C94000000
:1000800088E08BB9089594EA9093BC0028E09091A1
:10009000BC0097FD04C09BB192279BB9F8CF90910B
:1000A000B900987F983011F098E09BB96093BB003D
:1000B00094E89093BC009091BC0097FFFCCF909186
:1000C000B900987F983111F098E09BB98093BB00FC
:1000D00084E88093BC008091B900887F883211F059
:1000E00088E08BB984E98093BC000895880F816013
:1000F0008093BA0084E48093BC008091BC0087FFA9
:10010000FCCF8091B900887F803611F088E08BB9F0
:1001100084EC8093BC008091BC0087FFFCCF809171
:10012000B900887F803811F088E08BB984EC809327
:10013000BC008091BC0087FFFCCF8091B900887F14
:10014000803A11F088E08BB98091BB0008958FEF61
:100150008AB990E328E435E448E098B98091B90081
:100160008E7F8093B9008091B9008D7F8093B90014
:100170002093B8003093BC008091BC0087FD04C080
:100180008BB184278BB9F8CF5FEF63ED80E35150DB
:1001900060408040E1F700C00000DFCFF894FFCF5F
:00000001FF
