:100000000C9434000C943E000C943E000C943E0082
:100010000C943E000C943E000C943E000C943E0068
:100020000C943E000C943E000C943E000C943E0058
:100030000C943E000C943E000C943E000C943E0048
:100040000C943E000C943E000C943E000C943E0038
:100050000C943E000C943E000C943E000C943E0028
:100060000C943E000C943E0011241FBECFEFD8E04C
:10007000DEBFCDBF0E94B2000C94DC000C940000E7
:100080009BB184E089278BB90895CF93DF93C82F64
:10009000D62F84EA8093BC0098E08091BC0087FD55
:1000A00004C08BB189278BB9F8CF8091B900887FC4
:1000B000883011F00E944000D093BB0084E8809308
:1000C000BC008091BC0087FFFCCF8091B900887F85
:1000D000883111F00E944000C093BB0084E88093F7
:1000E000BC008091B900887F883211F00E944000E6
:1000F00084E98093BC00DF91CF910895880F8160DF
:100100008093BA0084E48093BC008091BC0087FF98
:10011000FCCF8091B900887F803611F584EC809304
:10012000BC0088E08BB98091BC0087FFFCCF809138
:10013000B900887F8038A1F48091BB0085B980E147
:100140008BB984EC8093BC008091BC0087FFFCCF0E
:100150008091B900887F803A19F480E28BB90895C4
:100160000C9440008FEF8AB91BB814B815B882E020
:100170008093BA0094EC9093BC008091B900887F82
:100180008036C9F79093BC008091BC0087FFFCCFFC
:100190008091B900887F803819F48091BB0085B9BF
:1001A0008091B900887F803A69F7EFE3FCE93197E5
:0C01B000F1F700C00000DFCFF894FFCF93
:00000001FF
