:100000000C9434000C9446000C9446000C9446006A
:100010000C9446000C9446000C9446000C94460048
:100020000C9446000C9446000C9446000C94460038
:100030000C9446000C9446000C9446000C94460028
:100040000C9446000C9446000C9446000C94460018
:100050000C9446000C9446000C9446000C94460008
:100060000C9446000C94460011241FBECFEFD8E03C
:10007000DEBFCDBF21E0A0E0B1E001C01D92A13004
:10008000B207E1F70E9469000C94F3000C940000A1
:1000900090E490937C0097E090937A0010927B001C
:1000A00090917A00906890937A0080937C00809180
:1000B0007A00806480937A0080917A0084FD04C085
:1000C00080917A008061F6CF8091780090917900DC
:1000D00008958EEF84B98CEF87B98AB9C0E0D0E07B
:1000E00052E0B52EAA24A39463E2E62E63E0F62E36
:1000F0007DE2972E809100018130A1F028F08230BE
:10010000B1F08D32B1F1F6CF83B120E4829FC0010E
:100110001124880F892F881F990B019759F7A092F6
:100120000001E8CFB0920001C0E0D0E0E3CF38ECAE
:10013000C32ED12C80E090E00E9448008C0181E029
:1001400090E00E9448009801281B390BC90137FF35
:1001500003C0919581959109C80FD91F31E0C31A49
:10016000D10841F7CE01B7010E94CB00EB0190927C
:1001700000018C2F880F880F8BB9CE0126E0959552
:1001800087952A95E1F785B9C536D10514F02D9AE2
:10019000B1CF2D98AFCF97FB072E16F4009407D060
:1001A00077FD09D00E94DF0007FC05D03EF4909552
:1001B00081959F4F0895709561957F4F0895AA1B73
:1001C000BB1B51E107C0AA1FBB1FA617B70710F042
:1001D000A61BB70B881F991F5A95A9F78095909574
:0A01E000BC01CD010895F894FFCF93
:00000001FF
