:100000000C9434000C943E000C943E000C943E0082
:100010000C943E000C943E000C943E000C943E0068
:100020000C943E000C943E000C943E000C943E0058
:100030000C943E000C943E000C943E000C943E0048
:100040000C943E000C943E000C943E000C943E0038
:100050000C943E000C943E000C943E000C943E0028
:100060000C943E000C943E0011241FBECFEFD8E04C
:10007000DEBFCDBF0E945F000C94C6000C94000050
:10008000019721F480917C00816003C080917C0005
:100090008E7F80937C0080917A00806480937A00C8
:1000A00080917A0086FDFCCF8091790090E00895E0
:1000B00087E880937A0080E680937C0008958FEF34
:1000C0008AB984B922981BB884E085B90E94580087
:1000D0000FEF10E01A9B2FC047ECD42EC0E0D0E009
:1000E00080E090E00E9440007C0181E090E00E946E
:1000F0004000E816F9062CF48E199F09C80FD91F85
:1001000004C0E81AF90ACE0DDF1DDA94D110E8CF49
:10011000CE01B8010E949E00CB01880F991F880F65
:10012000991F8BB9607C772736E0759567953A956E
:10013000E1F765B9CFCF15B81BB8CCCF97FB072E29
:1001400016F4009407D077FD09D00E94B20007FC96
:1001500005D03EF4909581959F4F089570956195D7
:100160007F4F0895AA1BBB1B51E107C0AA1FBB1FED
:10017000A617B70710F0A61BB70B881F991F5A9533
:10018000A9F780959095BC01CD010895F894FFCF13
:00000001FF
