:100000000C9434000C943E000C943E000C943E0082
:100010000C943E000C943E000C943E000C943E0068
:100020000C943E000C943E000C943E000C943E0058
:100030000C943E000C943E000C943E000C943E0048
:100040000C943E000C943E000C943E000C943E0038
:100050000C943E000C943E000C943E000C943E0028
:100060000C943E000C943E0011241FBECFEFD8E04C
:10007000DEBFCDBF0E9440000C9456000C940000DF
:100080008FEF8AB984B986E880937A0080E4809300
:100090007C0080917A00806480937A0080917A005D
:1000A00086FDFCCF8BB180588BB9F3CFF894FFCF8E
:00000001FF
